{
  "contractName": "FastExchange",
  "abi": [
    {
      "constant": true,
      "inputs": [],
      "name": "maxEth",
      "outputs": [
        {
          "name": "",
          "type": "uint256"
        }
      ],
      "payable": false,
      "stateMutability": "view",
      "type": "function"
    },
    {
      "constant": false,
      "inputs": [],
      "name": "acceptOwnership",
      "outputs": [],
      "payable": false,
      "stateMutability": "nonpayable",
      "type": "function"
    },
    {
      "constant": true,
      "inputs": [],
      "name": "owner",
      "outputs": [
        {
          "name": "",
          "type": "address"
        }
      ],
      "payable": false,
      "stateMutability": "view",
      "type": "function"
    },
    {
      "constant": true,
      "inputs": [
        {
          "name": "a",
          "type": "uint256"
        },
        {
          "name": "b",
          "type": "uint256"
        }
      ],
      "name": "safeSub",
      "outputs": [
        {
          "name": "c",
          "type": "uint256"
        }
      ],
      "payable": false,
      "stateMutability": "pure",
      "type": "function"
    },
    {
      "constant": true,
      "inputs": [
        {
          "name": "a",
          "type": "uint256"
        },
        {
          "name": "b",
          "type": "uint256"
        }
      ],
      "name": "safeDiv",
      "outputs": [
        {
          "name": "c",
          "type": "uint256"
        }
      ],
      "payable": false,
      "stateMutability": "pure",
      "type": "function"
    },
    {
      "constant": true,
      "inputs": [
        {
          "name": "a",
          "type": "uint256"
        },
        {
          "name": "b",
          "type": "uint256"
        }
      ],
      "name": "safeMul",
      "outputs": [
        {
          "name": "c",
          "type": "uint256"
        }
      ],
      "payable": false,
      "stateMutability": "pure",
      "type": "function"
    },
    {
      "constant": true,
      "inputs": [],
      "name": "newOwner",
      "outputs": [
        {
          "name": "",
          "type": "address"
        }
      ],
      "payable": false,
      "stateMutability": "view",
      "type": "function"
    },
    {
      "constant": true,
      "inputs": [
        {
          "name": "a",
          "type": "uint256"
        },
        {
          "name": "b",
          "type": "uint256"
        }
      ],
      "name": "safeAdd",
      "outputs": [
        {
          "name": "c",
          "type": "uint256"
        }
      ],
      "payable": false,
      "stateMutability": "pure",
      "type": "function"
    },
    {
      "constant": true,
      "inputs": [],
      "name": "minEth",
      "outputs": [
        {
          "name": "",
          "type": "uint256"
        }
      ],
      "payable": false,
      "stateMutability": "view",
      "type": "function"
    },
    {
      "constant": false,
      "inputs": [
        {
          "name": "_newOwner",
          "type": "address"
        }
      ],
      "name": "transferOwnership",
      "outputs": [],
      "payable": false,
      "stateMutability": "nonpayable",
      "type": "function"
    },
    {
      "inputs": [],
      "payable": false,
      "stateMutability": "nonpayable",
      "type": "constructor"
    },
    {
      "payable": true,
      "stateMutability": "payable",
      "type": "fallback"
    },
    {
      "anonymous": false,
      "inputs": [
        {
          "indexed": false,
          "name": "from",
          "type": "address"
        },
        {
          "indexed": false,
          "name": "transactionId",
          "type": "uint256"
        },
        {
          "indexed": false,
          "name": "ethValue",
          "type": "uint256"
        }
      ],
      "name": "ReceiveEth",
      "type": "event"
    },
    {
      "anonymous": false,
      "inputs": [
        {
          "indexed": false,
          "name": "to",
          "type": "address"
        },
        {
          "indexed": false,
          "name": "transactionId",
          "type": "uint256"
        },
        {
          "indexed": false,
          "name": "tokenAmount",
          "type": "uint256"
        },
        {
          "indexed": false,
          "name": "refundEth",
          "type": "uint256"
        },
        {
          "indexed": false,
          "name": "tokenRate",
          "type": "uint256"
        }
      ],
      "name": "TokenTransfered",
      "type": "event"
    },
    {
      "anonymous": false,
      "inputs": [
        {
          "indexed": false,
          "name": "mess",
          "type": "string"
        }
      ],
      "name": "CannotCreateNewTransaction",
      "type": "event"
    },
    {
      "anonymous": false,
      "inputs": [
        {
          "indexed": false,
          "name": "mes",
          "type": "string"
        }
      ],
      "name": "Log",
      "type": "event"
    },
    {
      "anonymous": false,
      "inputs": [
        {
          "indexed": false,
          "name": "time",
          "type": "uint256"
        }
      ],
      "name": "LogTime",
      "type": "event"
    },
    {
      "anonymous": false,
      "inputs": [
        {
          "indexed": true,
          "name": "_from",
          "type": "address"
        },
        {
          "indexed": true,
          "name": "_to",
          "type": "address"
        }
      ],
      "name": "OwnershipTransferred",
      "type": "event"
    },
    {
      "constant": true,
      "inputs": [
        {
          "name": "a",
          "type": "uint256"
        },
        {
          "name": "b",
          "type": "uint256"
        }
      ],
      "name": "testDiv",
      "outputs": [
        {
          "name": "",
          "type": "uint256"
        }
      ],
      "payable": false,
      "stateMutability": "view",
      "type": "function"
    },
    {
      "constant": false,
      "inputs": [
        {
          "name": "_sender",
          "type": "address"
        },
        {
          "name": "_transactionId",
          "type": "uint256"
        },
        {
          "name": "_tokenRate",
          "type": "uint256"
        },
        {
          "name": "_maxToken",
          "type": "uint256"
        }
      ],
      "name": "sendToken",
      "outputs": [],
      "payable": false,
      "stateMutability": "nonpayable",
      "type": "function"
    }
  ],
  "bytecode": "0x608060405234801561001057600080fd5b50336000806101000a81548173ffffffffffffffffffffffffffffffffffffffff021916908373ffffffffffffffffffffffffffffffffffffffff16021790555061101b806100606000396000f3006080604052600436106100ba576000357c0100000000000000000000000000000000000000000000000000000000900463ffffffff1680631d50169c146100c65780633b3a7e311461012757806354fc85ac1461017257806379ba50971461019d5780638da5cb5b146101b4578063a293d1e81461020b578063b5931f7c14610256578063d05c78da146102a1578063d4ee1d90146102ec578063e6cb901314610343578063f1fb3ace1461038e578063f2fde38b146103b9575b6100c433346103fc565b005b3480156100d257600080fd5b50610125600480360381019080803573ffffffffffffffffffffffffffffffffffffffff169060200190929190803590602001909291908035906020019092919080359060200190929190505050610626565b005b34801561013357600080fd5b5061015c6004803603810190808035906020019092919080359060200190929190505050610c71565b6040518082815260200191505060405180910390f35b34801561017e57600080fd5b50610187610c85565b6040518082815260200191505060405180910390f35b3480156101a957600080fd5b506101b2610c91565b005b3480156101c057600080fd5b506101c9610e30565b604051808273ffffffffffffffffffffffffffffffffffffffff1673ffffffffffffffffffffffffffffffffffffffff16815260200191505060405180910390f35b34801561021757600080fd5b506102406004803603810190808035906020019092919080359060200190929190505050610e55565b6040518082815260200191505060405180910390f35b34801561026257600080fd5b5061028b6004803603810190808035906020019092919080359060200190929190505050610e71565b6040518082815260200191505060405180910390f35b3480156102ad57600080fd5b506102d66004803603810190808035906020019092919080359060200190929190505050610e95565b6040518082815260200191505060405180910390f35b3480156102f857600080fd5b50610301610ec6565b604051808273ffffffffffffffffffffffffffffffffffffffff1673ffffffffffffffffffffffffffffffffffffffff16815260200191505060405180910390f35b34801561034f57600080fd5b506103786004803603810190808035906020019092919080359060200190929190505050610eec565b6040518082815260200191505060405180910390f35b34801561039a57600080fd5b506103a3610f08565b6040518082815260200191505060405180910390f35b3480156103c557600080fd5b506103fa600480360381019080803573ffffffffffffffffffffffffffffffffffffffff169060200190929190505050610f14565b005b8067016345785d8a0000811015151561041457600080fd5b674563918244f40000811115151561042b57600080fd5b600460008473ffffffffffffffffffffffffffffffffffffffff1673ffffffffffffffffffffffffffffffffffffffff16815260200190815260200160002060e0604051908101604052808573ffffffffffffffffffffffffffffffffffffffff16815260200184815260200160008152602001600081526020016000815260200142815260200160008152509080600181540180825580915050906001820390600052602060002090600702016000909192909190915060008201518160000160006101000a81548173ffffffffffffffffffffffffffffffffffffffff021916908373ffffffffffffffffffffffffffffffffffffffff1602179055506020820151816001015560408201518160020155606082015181600301556080820151816004015560a0820151816005015560c082015181600601555050507f229f2af8152f8220a3f9a69a0eead26c38fd702eeebe43b70326ef0e274231a3836001600460008773ffffffffffffffffffffffffffffffffffffffff1673ffffffffffffffffffffffffffffffffffffffff168152602001908152602001600020805490500384604051808473ffffffffffffffffffffffffffffffffffffffff1673ffffffffffffffffffffffffffffffffffffffff168152602001838152602001828152602001935050505060405180910390a1505050565b6000806000806000809054906101000a900473ffffffffffffffffffffffffffffffffffffffff1673ffffffffffffffffffffffffffffffffffffffff163373ffffffffffffffffffffffffffffffffffffffff1614151561068757600080fd5b8787806001600460008573ffffffffffffffffffffffffffffffffffffffff1673ffffffffffffffffffffffffffffffffffffffff1681526020019081526020016000208054905003101515156106dd57600080fd5b600460008b73ffffffffffffffffffffffffffffffffffffffff1673ffffffffffffffffffffffffffffffffffffffff1681526020019081526020016000208981548110151561072957fe5b90600052602060002090600702019550610747888760010154610e95565b945086851115610755578694505b600260009054906101000a900473ffffffffffffffffffffffffffffffffffffffff169350848473ffffffffffffffffffffffffffffffffffffffff1663dd62ed3e600360009054906101000a900473ffffffffffffffffffffffffffffffffffffffff16306040518363ffffffff167c0100000000000000000000000000000000000000000000000000000000028152600401808373ffffffffffffffffffffffffffffffffffffffff1673ffffffffffffffffffffffffffffffffffffffff1681526020018273ffffffffffffffffffffffffffffffffffffffff1673ffffffffffffffffffffffffffffffffffffffff16815260200192505050602060405180830381600087803b15801561086c57600080fd5b505af1158015610880573d6000803e3d6000fd5b505050506040513d602081101561089657600080fd5b810190808051906020019092919050505010156108b1578694505b6108c886600101546108c3878b610e71565b610e55565b9250600083111561091b578973ffffffffffffffffffffffffffffffffffffffff166108fc849081150290604051600060405180830381858888f19350505050158015610919573d6000803e3d6000fd5b505b6000851115610a5a578373ffffffffffffffffffffffffffffffffffffffff166323b872dd600360009054906101000a900473ffffffffffffffffffffffffffffffffffffffff168c886040518463ffffffff167c0100000000000000000000000000000000000000000000000000000000028152600401808473ffffffffffffffffffffffffffffffffffffffff1673ffffffffffffffffffffffffffffffffffffffff1681526020018373ffffffffffffffffffffffffffffffffffffffff1673ffffffffffffffffffffffffffffffffffffffff1681526020018281526020019350505050602060405180830381600087803b158015610a1d57600080fd5b505af1158015610a31573d6000803e3d6000fd5b505050506040513d6020811015610a4757600080fd5b8101908080519060200190929190505050505b87600460008c73ffffffffffffffffffffffffffffffffffffffff1673ffffffffffffffffffffffffffffffffffffffff1681526020019081526020016000208a815481101515610aa757fe5b90600052602060002090600702016002018190555086600460008c73ffffffffffffffffffffffffffffffffffffffff1673ffffffffffffffffffffffffffffffffffffffff1681526020019081526020016000208a815481101515610b0957fe5b90600052602060002090600702016003018190555082600460008c73ffffffffffffffffffffffffffffffffffffffff1673ffffffffffffffffffffffffffffffffffffffff1681526020019081526020016000208a815481101515610b6b57fe5b90600052602060002090600702016004018190555042600460008c73ffffffffffffffffffffffffffffffffffffffff1673ffffffffffffffffffffffffffffffffffffffff1681526020019081526020016000208a815481101515610bcd57fe5b9060005260206000209060070201600601819055507fd0ee7f0632358050d58fdc53a27dafffcda7d9941458f29897d8ab363875d28c8a8a87868c604051808673ffffffffffffffffffffffffffffffffffffffff1673ffffffffffffffffffffffffffffffffffffffff1681526020018581526020018481526020018381526020018281526020019550505050505060405180910390a150505050505050505050565b6000610c7d8383610e71565b905092915050565b674563918244f4000081565b600160009054906101000a900473ffffffffffffffffffffffffffffffffffffffff1673ffffffffffffffffffffffffffffffffffffffff163373ffffffffffffffffffffffffffffffffffffffff16141515610ced57600080fd5b600160009054906101000a900473ffffffffffffffffffffffffffffffffffffffff1673ffffffffffffffffffffffffffffffffffffffff166000809054906101000a900473ffffffffffffffffffffffffffffffffffffffff1673ffffffffffffffffffffffffffffffffffffffff167f8be0079c531659141344cd1fd0a4f28419497f9722a3daafe3b4186f6b6457e060405160405180910390a3600160009054906101000a900473ffffffffffffffffffffffffffffffffffffffff166000806101000a81548173ffffffffffffffffffffffffffffffffffffffff021916908373ffffffffffffffffffffffffffffffffffffffff1602179055506000600160006101000a81548173ffffffffffffffffffffffffffffffffffffffff021916908373ffffffffffffffffffffffffffffffffffffffff160217905550565b6000809054906101000a900473ffffffffffffffffffffffffffffffffffffffff1681565b6000828211151515610e6657600080fd5b818303905092915050565b60008082111515610e8157600080fd5b8183811515610e8c57fe5b04905092915050565b600081830290506000831480610eb55750818382811515610eb257fe5b04145b1515610ec057600080fd5b92915050565b600160009054906101000a900473ffffffffffffffffffffffffffffffffffffffff1681565b60008183019050828110151515610f0257600080fd5b92915050565b67016345785d8a000081565b6000809054906101000a900473ffffffffffffffffffffffffffffffffffffffff1673ffffffffffffffffffffffffffffffffffffffff163373ffffffffffffffffffffffffffffffffffffffff16141515610f6f57600080fd5b600073ffffffffffffffffffffffffffffffffffffffff168173ffffffffffffffffffffffffffffffffffffffff1614151515610fab57600080fd5b80600160006101000a81548173ffffffffffffffffffffffffffffffffffffffff021916908373ffffffffffffffffffffffffffffffffffffffff160217905550505600a165627a7a72305820c1a3035c6388eed54a467d0752a221eceafd4bcd012adcf418e23c834f4b29120029",
  "source": "pragma solidity ^0.4.19;\n\n\n// ----------------------------------------------------------------------------\n// Safe maths start\n// ----------------------------------------------------------------------------\ncontract SafeMath {\n    function safeAdd(uint a, uint b) public pure returns (uint c) {\n        c = a + b;\n        require(c >= a);\n    }\n    function safeSub(uint a, uint b) public pure returns (uint c) {\n        require(b <= a);\n        c = a - b;\n    }\n    function safeMul(uint a, uint b) public pure returns (uint c) {\n        c = a * b;\n        require(a == 0 || c / a == b);\n    }\n    function safeDiv(uint a, uint b) public pure returns (uint c) {\n        require(b > 0);\n        c = a / b;\n    }\n}\n// ----------------------------------------------------------------------------\n// Safe maths end\n// ----------------------------------------------------------------------------\n\n// ----------------------------------------------------------------------------\n// ERC20 contract start\n// ----------------------------------------------------------------------------\ncontract ERC20Token {\n    function totalSupply() public constant returns (uint);\n    function balanceOf(address tokenOwner) public constant returns (uint balance);\n    function allowance(address tokenOwner, address spender) public constant returns (uint remaining);\n    function transfer(address to, uint tokens) public returns (bool success);\n    function approve(address spender, uint tokens) public returns (bool success);\n    function transferFrom(address from, address to, uint tokens) public returns (bool success);\n\n    event Transfer(address indexed from, address indexed to, uint tokens);\n    event Approval(address indexed tokenOwner, address indexed spender, uint tokens);\n}\n// ----------------------------------------------------------------------------\n// ERC20 contract end\n// ----------------------------------------------------------------------------\n\n\n// ----------------------------------------------------------------------------\n// Owned contract start\n// ----------------------------------------------------------------------------\ncontract Owned {\n    address public owner;\n    address public newOwner;\n\n    event OwnershipTransferred(address indexed _from, address indexed _to);\n\n    constructor() public {\n        owner = msg.sender;\n    }\n\n    modifier onlyOwner {\n        require(msg.sender == owner);\n        _;\n    }\n\n    function transferOwnership(address _newOwner) public onlyOwner {\n        require(_newOwner != address(0));\n        newOwner = _newOwner;\n    }\n    function acceptOwnership() public {\n        require(msg.sender == newOwner);\n        emit OwnershipTransferred(owner, newOwner);\n        owner = newOwner;\n        newOwner = address(0);\n    }\n}\n// ----------------------------------------------------------------------------\n// Owned contract end\n// ----------------------------------------------------------------------------\n\n\n// ----------------------------------------------------------------------------\n// FastExchange contract start\n// ----------------------------------------------------------------------------\ncontract FastExchange is Owned, SafeMath {\n\n    struct FTransaction {\n        address from;\n        uint receivedEth;\n        uint tokenRate;\n        uint maxToken;\n        uint refundEth;\n        uint createdAt;\n        uint transferedAt;\n    }\n    \n    uint public constant minEth = 0.1 ether;\n    uint public constant maxEth = 5 ether;\n    address tokenAddress;\n    address faucetAddress;\n\n    mapping (address => FTransaction[]) transactionBook;\n    //mapping (address => Transaction) lastestTransaction;\n\n    //events\n    event ReceiveEth(address from, uint transactionId, uint ethValue);\n    event TokenTransfered(address to, uint transactionId, uint tokenAmount, uint refundEth, uint tokenRate);\n    event CannotCreateNewTransaction(string mess);\n    event Log(string mes);\n    event LogTime(uint time);\n    //events\n\n    //modifiers\n    modifier AccepableEther(uint _etherValue) {\n        require(_etherValue >= minEth);\n        require(_etherValue <= maxEth);\n        _;\n    } \n\n    modifier ValidTransactionId(address _sender, uint _transactionId) {\n        require(transactionBook[_sender].length - 1 >= _transactionId);\n        _;\n    }\n\n    function testDiv(uint a, uint b) public constant returns (uint) {\n        return safeDiv(a,b);\n    }\n    \n\n    //constructor\n    /* constructor(address _tokenAddress, address _faucetAddress) public {\n        tokenAddress = _tokenAddress;\n        faucetAddress = _faucetAddress;\n    } */\n\n    constructor() public {\n        \n    }\n\n    function () public payable {\n        _processIncomingEther(msg.sender, msg.value);\n    }\n\n    function _processIncomingEther(address _sender, uint _ethValue) private AccepableEther(_ethValue) {\n        transactionBook[_sender].push(FTransaction(_sender, _ethValue, 0, 0, 0, now, 0));\n        emit ReceiveEth(_sender, transactionBook[_sender].length -1, _ethValue);  \n    }\n\n    function sendToken(address _sender, uint _transactionId, uint _tokenRate, uint _maxToken) public onlyOwner ValidTransactionId(_sender, _transactionId){\n        FTransaction storage t = transactionBook[_sender][_transactionId];\n        uint tokenToSend = safeMul(_tokenRate, t.receivedEth);\n        if(tokenToSend > _maxToken){\n            tokenToSend = _maxToken;\n        }\n        ERC20Token tokenContract = ERC20Token(tokenAddress);\n        if(tokenContract.allowance(faucetAddress,this) < tokenToSend){\n            tokenToSend = _maxToken;\n        }\n        uint refundEth = safeSub(t.receivedEth, safeDiv(tokenToSend, _tokenRate));\n        if(refundEth > 0){\n            _sender.transfer(refundEth);\n        }\n        if(tokenToSend > 0){\n            tokenContract.transferFrom(faucetAddress, _sender, tokenToSend);\n        }\n        transactionBook[_sender][_transactionId].tokenRate = _tokenRate;\n        transactionBook[_sender][_transactionId].maxToken = _maxToken;\n        transactionBook[_sender][_transactionId].refundEth = refundEth;\n        transactionBook[_sender][_transactionId].transferedAt = now;\n        emit TokenTransfered(_sender, _transactionId, tokenToSend, refundEth, _tokenRate);\n    }\n}\n// ----------------------------------------------------------------------------\n// FastExchange contract end\n// ----------------------------------------------------------------------------",
  "sourcePath": "/Volumes/DATA/NIENDOCS/WorkSpace/TOMOCHAIN/TomoFastExContract/prototypes2/contracts/FastExchangeContract.sol",
  "compiler": {
    "name": "solc",
    "version": "0.4.24+commit.e67f0147.Emscripten.clang"
  },
  "schemaVersion": "2.0.0",
  "updatedAt": "2018-07-02T11:19:43.638Z"
}