{
  "contractName": "FastExchange",
  "abi": [
    {
      "constant": true,
      "inputs": [],
      "name": "owner",
      "outputs": [
        {
          "name": "",
          "type": "address"
        }
      ],
      "payable": false,
      "stateMutability": "view",
      "type": "function"
    },
    {
      "inputs": [],
      "payable": false,
      "stateMutability": "nonpayable",
      "type": "constructor"
    },
    {
      "payable": true,
      "stateMutability": "payable",
      "type": "fallback"
    },
    {
      "anonymous": false,
      "inputs": [
        {
          "indexed": false,
          "name": "from",
          "type": "address"
        },
        {
          "indexed": false,
          "name": "transactionId",
          "type": "uint256"
        },
        {
          "indexed": false,
          "name": "ethValue",
          "type": "uint256"
        }
      ],
      "name": "ReceiveEth",
      "type": "event"
    },
    {
      "anonymous": false,
      "inputs": [
        {
          "indexed": false,
          "name": "to",
          "type": "address"
        },
        {
          "indexed": false,
          "name": "transactionId",
          "type": "uint256"
        },
        {
          "indexed": false,
          "name": "tokenAmount",
          "type": "uint256"
        },
        {
          "indexed": false,
          "name": "refundEth",
          "type": "uint256"
        },
        {
          "indexed": false,
          "name": "tokenRate",
          "type": "uint256"
        }
      ],
      "name": "TokenTransferred",
      "type": "event"
    },
    {
      "anonymous": false,
      "inputs": [
        {
          "indexed": false,
          "name": "from",
          "type": "address"
        },
        {
          "indexed": false,
          "name": "receivedEth",
          "type": "uint256"
        },
        {
          "indexed": false,
          "name": "tokenRate",
          "type": "uint256"
        },
        {
          "indexed": false,
          "name": "tokenAmount",
          "type": "uint256"
        },
        {
          "indexed": false,
          "name": "createdAt",
          "type": "uint256"
        },
        {
          "indexed": false,
          "name": "transferredAt",
          "type": "uint256"
        }
      ],
      "name": "TransactionLog",
      "type": "event"
    },
    {
      "anonymous": false,
      "inputs": [
        {
          "indexed": true,
          "name": "_from",
          "type": "address"
        },
        {
          "indexed": true,
          "name": "_to",
          "type": "address"
        }
      ],
      "name": "OwnershipTransferred",
      "type": "event"
    },
    {
      "constant": false,
      "inputs": [],
      "name": "withdraw",
      "outputs": [],
      "payable": false,
      "stateMutability": "nonpayable",
      "type": "function"
    },
    {
      "constant": true,
      "inputs": [],
      "name": "getTransactionListLength",
      "outputs": [
        {
          "name": "length",
          "type": "uint256"
        }
      ],
      "payable": false,
      "stateMutability": "view",
      "type": "function"
    },
    {
      "constant": true,
      "inputs": [
        {
          "name": "_transactionId",
          "type": "uint256"
        }
      ],
      "name": "getTransactionDetail",
      "outputs": [
        {
          "name": "",
          "type": "address"
        },
        {
          "name": "",
          "type": "uint256"
        },
        {
          "name": "",
          "type": "uint256"
        },
        {
          "name": "",
          "type": "uint256"
        },
        {
          "name": "",
          "type": "uint256"
        },
        {
          "name": "",
          "type": "uint256"
        }
      ],
      "payable": false,
      "stateMutability": "view",
      "type": "function"
    },
    {
      "constant": true,
      "inputs": [
        {
          "name": "_user",
          "type": "address"
        }
      ],
      "name": "getUserTransactionIndexes",
      "outputs": [
        {
          "name": "",
          "type": "uint256[]"
        }
      ],
      "payable": false,
      "stateMutability": "view",
      "type": "function"
    },
    {
      "constant": false,
      "inputs": [
        {
          "name": "_from",
          "type": "address"
        }
      ],
      "name": "logAllTransactions",
      "outputs": [],
      "payable": false,
      "stateMutability": "nonpayable",
      "type": "function"
    },
    {
      "constant": false,
      "inputs": [
        {
          "name": "_transactionId",
          "type": "uint256"
        },
        {
          "name": "_tokenRate",
          "type": "uint256"
        },
        {
          "name": "_tokenAddress",
          "type": "address"
        },
        {
          "name": "_tokenHolder",
          "type": "address"
        }
      ],
      "name": "sendToken",
      "outputs": [],
      "payable": false,
      "stateMutability": "nonpayable",
      "type": "function"
    }
  ],
  "bytecode": "0x608060405234801561001057600080fd5b50336000806101000a81548173ffffffffffffffffffffffffffffffffffffffff021916908373ffffffffffffffffffffffffffffffffffffffff160217905550610f90806100606000396000f300608060405260043610610083576000357c0100000000000000000000000000000000000000000000000000000000900463ffffffff1680633567d6371461008f578063399f6fe5146100ba5780633ccfd60b14610131578063664dd24f146101485780638da5cb5b146101e05780638e65f7e4146102375780639ff512fa1461027a575b61008d333461030a565b005b34801561009b57600080fd5b506100a4610556565b6040518082815260200191505060405180910390f35b3480156100c657600080fd5b5061012f6004803603810190808035906020019092919080359060200190929190803573ffffffffffffffffffffffffffffffffffffffff169060200190929190803573ffffffffffffffffffffffffffffffffffffffff1690602001909291905050506105be565b005b34801561013d57600080fd5b50610146610a50565b005b34801561015457600080fd5b50610189600480360381019080803573ffffffffffffffffffffffffffffffffffffffff169060200190929190505050610b2c565b6040518080602001828103825283818151815260200191508051906020019060200280838360005b838110156101cc5780820151818401526020810190506101b1565b505050509050019250505060405180910390f35b3480156101ec57600080fd5b506101f5610c1e565b604051808273ffffffffffffffffffffffffffffffffffffffff1673ffffffffffffffffffffffffffffffffffffffff16815260200191505060405180910390f35b34801561024357600080fd5b50610278600480360381019080803573ffffffffffffffffffffffffffffffffffffffff169060200190929190505050610c43565b005b34801561028657600080fd5b506102a560048036038101908080359060200190929190505050610e02565b604051808773ffffffffffffffffffffffffffffffffffffffff1673ffffffffffffffffffffffffffffffffffffffff168152602001868152602001858152602001848152602001838152602001828152602001965050505050505060405180910390f35b8067016345785d8a0000811015151561032257600080fd5b674563918244f40000811115151561033957600080fd5b600160c0604051908101604052808573ffffffffffffffffffffffffffffffffffffffff168152602001848152602001600081526020016000815260200142815260200160008152509080600181540180825580915050906001820390600052602060002090600602016000909192909190915060008201518160000160006101000a81548173ffffffffffffffffffffffffffffffffffffffff021916908373ffffffffffffffffffffffffffffffffffffffff1602179055506020820151816001015560408201518160020155606082015181600301556080820151816004015560a08201518160050155505050600260008473ffffffffffffffffffffffffffffffffffffffff1673ffffffffffffffffffffffffffffffffffffffff168152602001908152602001600020600180805490500390806001815401808255809150509060018203906000526020600020016000909192909190915055507f229f2af8152f8220a3f9a69a0eead26c38fd702eeebe43b70326ef0e274231a3836001600260008773ffffffffffffffffffffffffffffffffffffffff1673ffffffffffffffffffffffffffffffffffffffff168152602001908152602001600020805490500384604051808473ffffffffffffffffffffffffffffffffffffffff1673ffffffffffffffffffffffffffffffffffffffff168152602001838152602001828152602001935050505060405180910390a1505050565b60008060009054906101000a900473ffffffffffffffffffffffffffffffffffffffff1673ffffffffffffffffffffffffffffffffffffffff163373ffffffffffffffffffffffffffffffffffffffff161415156105b357600080fd5b600180549050905090565b60008060008060008060009054906101000a900473ffffffffffffffffffffffffffffffffffffffff1673ffffffffffffffffffffffffffffffffffffffff163373ffffffffffffffffffffffffffffffffffffffff1614151561062157600080fd5b888060018080549050031015151561063857600080fd5b89600060018281548110151561064a57fe5b90600052602060002090600602016005015414151561066857600080fd5b60018b81548110151561067757fe5b906000526020600020906006020196508895508573ffffffffffffffffffffffffffffffffffffffff1663dd62ed3e89306040518363ffffffff167c0100000000000000000000000000000000000000000000000000000000028152600401808373ffffffffffffffffffffffffffffffffffffffff1673ffffffffffffffffffffffffffffffffffffffff1681526020018273ffffffffffffffffffffffffffffffffffffffff1673ffffffffffffffffffffffffffffffffffffffff16815260200192505050602060405180830381600087803b15801561075957600080fd5b505af115801561076d573d6000803e3d6000fd5b505050506040513d602081101561078357600080fd5b810190808051906020019092919050505094506107a48a8860010154610ef3565b9350838510156107b2578493505b6107c987600101546107c4868d610f24565b610f48565b92506000831115610840578660000160009054906101000a900473ffffffffffffffffffffffffffffffffffffffff1673ffffffffffffffffffffffffffffffffffffffff166108fc849081150290604051600060405180830381858888f1935050505015801561083e573d6000803e3d6000fd5b505b6000841115610981578573ffffffffffffffffffffffffffffffffffffffff166323b872dd898960000160009054906101000a900473ffffffffffffffffffffffffffffffffffffffff16876040518463ffffffff167c0100000000000000000000000000000000000000000000000000000000028152600401808473ffffffffffffffffffffffffffffffffffffffff1673ffffffffffffffffffffffffffffffffffffffff1681526020018373ffffffffffffffffffffffffffffffffffffffff1673ffffffffffffffffffffffffffffffffffffffff1681526020018281526020019350505050602060405180830381600087803b15801561094457600080fd5b505af1158015610958573d6000803e3d6000fd5b505050506040513d602081101561096e57600080fd5b8101908080519060200190929190505050505b8987600201819055508387600301819055504287600501819055507ff2da68c47066ef0c54d27743346bc08bdf6e13c9d94e54be4d888ad93df463958760000160009054906101000a900473ffffffffffffffffffffffffffffffffffffffff168c86868e604051808673ffffffffffffffffffffffffffffffffffffffff1673ffffffffffffffffffffffffffffffffffffffff1681526020018581526020018481526020018381526020018281526020019550505050505060405180910390a15050505050505050505050565b6000809054906101000a900473ffffffffffffffffffffffffffffffffffffffff1673ffffffffffffffffffffffffffffffffffffffff163373ffffffffffffffffffffffffffffffffffffffff16141515610aab57600080fd5b6000809054906101000a900473ffffffffffffffffffffffffffffffffffffffff1673ffffffffffffffffffffffffffffffffffffffff166108fc3073ffffffffffffffffffffffffffffffffffffffff16319081150290604051600060405180830381858888f19350505050158015610b29573d6000803e3d6000fd5b50565b60606000809054906101000a900473ffffffffffffffffffffffffffffffffffffffff1673ffffffffffffffffffffffffffffffffffffffff163373ffffffffffffffffffffffffffffffffffffffff16141515610b8957600080fd5b600260008373ffffffffffffffffffffffffffffffffffffffff1673ffffffffffffffffffffffffffffffffffffffff168152602001908152602001600020805480602002602001604051908101604052809291908181526020018280548015610c1257602002820191906000526020600020905b815481526020019060010190808311610bfe575b50505050509050919050565b6000809054906101000a900473ffffffffffffffffffffffffffffffffffffffff1681565b60008060008060009054906101000a900473ffffffffffffffffffffffffffffffffffffffff1673ffffffffffffffffffffffffffffffffffffffff163373ffffffffffffffffffffffffffffffffffffffff16141515610ca357600080fd5b600260008573ffffffffffffffffffffffffffffffffffffffff1673ffffffffffffffffffffffffffffffffffffffff1681526020019081526020016000209250600091505b8280549050821015610dfc5760018383815481101515610d0557fe5b9060005260206000200154815481101515610d1c57fe5b906000526020600020906006020190507f311f63b5135cd4d1e0e26c4846d3787c973890dae024360cca347fbf9d532d778160000160009054906101000a900473ffffffffffffffffffffffffffffffffffffffff1682600101548360020154846003015485600401548660050154604051808773ffffffffffffffffffffffffffffffffffffffff1673ffffffffffffffffffffffffffffffffffffffff168152602001868152602001858152602001848152602001838152602001828152602001965050505050505060405180910390a18180600101925050610ce9565b50505050565b60008060008060008060008060009054906101000a900473ffffffffffffffffffffffffffffffffffffffff1673ffffffffffffffffffffffffffffffffffffffff163373ffffffffffffffffffffffffffffffffffffffff16141515610e6857600080fd5b8780600180805490500310151515610e7f57600080fd5b600189815481101515610e8e57fe5b906000526020600020906006020191508160000160009054906101000a900473ffffffffffffffffffffffffffffffffffffffff1682600101548360020154846003015485600401548660050154975097509750975097509750505091939550919395565b600081830290506000831480610f135750818382811515610f1057fe5b04145b1515610f1e57600080fd5b92915050565b60008082111515610f3457600080fd5b8183811515610f3f57fe5b04905092915050565b6000828211151515610f5957600080fd5b8183039050929150505600a165627a7a7230582028276b2de5a169a76e89242fafd6dda48d27c3267e2d13ddd2b2f63b2f900c960029",
  "source": "pragma solidity ^0.4.19;\n\n\n// ----------------------------------------------------------------------------\n// Safe maths start\n// ----------------------------------------------------------------------------\ncontract SafeMath {\n    function safeAdd(uint a, uint b) internal pure returns (uint c) {\n        c = a + b;\n        require(c >= a);\n    }\n    function safeSub(uint a, uint b) internal pure returns (uint c) {\n        require(b <= a);\n        c = a - b;\n    }\n    function safeMul(uint a, uint b) internal pure returns (uint c) {\n        c = a * b;\n        require(a == 0 || c / a == b);\n    }\n    function safeDiv(uint a, uint b) internal pure returns (uint c) {\n        require(b > 0);\n        c = a / b;\n    }\n}\n// ----------------------------------------------------------------------------\n// Safe maths end\n// ----------------------------------------------------------------------------\n\n// ----------------------------------------------------------------------------\n// ERC20 contract start\n// ----------------------------------------------------------------------------\ncontract ERC20Token {\n    function totalSupply() public constant returns (uint);\n    function balanceOf(address tokenOwner) public constant returns (uint balance);\n    function allowance(address tokenOwner, address spender) public constant returns (uint remaining);\n    function transfer(address to, uint tokens) public returns (bool success);\n    function approve(address spender, uint tokens) public returns (bool success);\n    function transferFrom(address from, address to, uint tokens) public returns (bool success);\n\n    event Transfer(address indexed from, address indexed to, uint tokens);\n    event Approval(address indexed tokenOwner, address indexed spender, uint tokens);\n}\n// ----------------------------------------------------------------------------\n// ERC20 contract end\n// ----------------------------------------------------------------------------\n\n\n// ----------------------------------------------------------------------------\n// Owned contract start\n// ----------------------------------------------------------------------------\ncontract Owned {\n    address public owner;\n\n    event OwnershipTransferred(address indexed _from, address indexed _to);\n\n    constructor() public {\n        owner = msg.sender;\n    }\n\n    modifier onlyOwner {\n        require(msg.sender == owner);\n        _;\n    }\n}\n// ----------------------------------------------------------------------------\n// Owned contract end\n// ----------------------------------------------------------------------------\n\n\n// ----------------------------------------------------------------------------\n// FastExchange contract start\n// ----------------------------------------------------------------------------\ncontract FastExchange is Owned, SafeMath {\n\n    struct FTransaction {\n        address from;\n        uint receivedEth;\n        uint tokenRate;\n        uint tokenAmount;\n        uint createdAt;\n        uint transferredAt;\n    }\n    \n    uint private constant minEth = 0.1 ether;\n    uint private constant maxEth = 5 ether;\n\n    FTransaction[] private transactions;\n    mapping (address => uint[]) private transactionBook;\n\n    //events\n    event ReceiveEth(address from, uint transactionId, uint ethValue);\n    event TokenTransferred(address to, uint transactionId, uint tokenAmount, uint refundEth, uint tokenRate);\n    event TransactionLog(address from, uint receivedEth, uint tokenRate, uint tokenAmount, uint createdAt, uint transferredAt);\n\n    //events\n\n    //modifiers\n    modifier AccepableEther(uint _etherValue) {\n        require(_etherValue >= minEth);\n        require(_etherValue <= maxEth);\n        _;\n    } \n\n    modifier ValidTransactionId(uint _transactionId) {\n        require(transactions.length - 1 >= _transactionId);\n        _;\n    }\n\n    modifier TransactionIsNotClosed(uint _transactionId) {\n        require(transactions[_transactionId].transferredAt == 0);\n        _;\n    }\n    \n\n    //constructor\n    constructor() public {\n        \n    } \n\n    function () public payable {\n        _processIncomingEther(msg.sender, msg.value);\n    }\n\n    \n\n    function _processIncomingEther(address _sender, uint _ethValue) private AccepableEther(_ethValue) {\n        transactions.push(FTransaction(_sender, _ethValue, 0, 0, now, 0));\n        transactionBook[_sender].push(transactions.length - 1);\n        emit ReceiveEth(_sender, transactionBook[_sender].length -1, _ethValue);  \n    }\n\n    function withdraw() public onlyOwner{\n        owner.transfer(address(this).balance);\n    }\n\n    function getTransactionListLength() public constant onlyOwner returns (uint length){\n        length = transactions.length;\n    }\n\n    function getTransactionDetail(uint _transactionId) public constant onlyOwner ValidTransactionId(_transactionId) returns (address, uint, uint, uint, uint, uint){\n        FTransaction storage t = transactions[_transactionId];\n        return (t.from, t.receivedEth, t.tokenRate, t.tokenAmount, t.createdAt, t.transferredAt);\n    }\n\n    function getUserTransactionIndexes(address _user) public constant onlyOwner returns(uint[]) {\n        return transactionBook[_user];\n    }\n\n    function logAllTransactions(address _from) public onlyOwner{\n        uint[] storage ids = transactionBook[_from];\n        for (uint i = 0; i < ids.length; i++) {\n            FTransaction storage t = transactions[ids[i]];\n            emit TransactionLog(t.from, t.receivedEth, t.tokenRate, t.tokenAmount, t.createdAt, t.transferredAt);\n        }\n    }\n\n    function sendToken(uint _transactionId, uint _tokenRate, address _tokenAddress, address _tokenHolder) public onlyOwner ValidTransactionId(_transactionId) TransactionIsNotClosed(_transactionId){\n        \n        FTransaction storage t = transactions[_transactionId];\n        ERC20Token tokenContract = ERC20Token(_tokenAddress);\n        uint allowedToken = tokenContract.allowance(_tokenHolder,this); \n        uint tokenToSend = safeMul(_tokenRate, t.receivedEth); \n        if(allowedToken < tokenToSend){ \n            tokenToSend = allowedToken;\n        }\n        \n\n        uint refundEth = safeSub(t.receivedEth, safeDiv(tokenToSend, _tokenRate));\n        if(refundEth > 0){\n            t.from.transfer(refundEth);\n        }\n        if(tokenToSend > 0){\n            tokenContract.transferFrom(_tokenHolder, t.from, tokenToSend);\n        }\n        t.tokenRate = _tokenRate;\n        t.tokenAmount = tokenToSend;\n        t.transferredAt = now;\n        emit TokenTransferred(t.from, _transactionId, tokenToSend, refundEth, _tokenRate);\n    }\n    \n    \n}\n// ----------------------------------------------------------------------------\n// FastExchange contract end\n// ----------------------------------------------------------------------------",
  "sourcePath": "/Volumes/DATA/NIENDOCS/WorkSpace/TOMOCHAIN/TomoFastExContract/prototypes2/contracts/FastExchangeContract.sol",
  "compiler": {
    "name": "solc",
    "version": "0.4.24+commit.e67f0147.Emscripten.clang"
  },
  "schemaVersion": "2.0.0",
  "updatedAt": "2018-07-05T09:20:48.169Z"
}