{
  "contractName": "FastExchange",
  "abi": [
    {
      "constant": true,
      "inputs": [],
      "name": "owner",
      "outputs": [
        {
          "name": "",
          "type": "address"
        }
      ],
      "payable": false,
      "stateMutability": "view",
      "type": "function"
    },
    {
      "inputs": [
        {
          "name": "_tokenAddress",
          "type": "address"
        },
        {
          "name": "_faucetAddress",
          "type": "address"
        }
      ],
      "payable": false,
      "stateMutability": "nonpayable",
      "type": "constructor"
    },
    {
      "payable": true,
      "stateMutability": "payable",
      "type": "fallback"
    },
    {
      "anonymous": false,
      "inputs": [
        {
          "indexed": false,
          "name": "from",
          "type": "address"
        },
        {
          "indexed": false,
          "name": "transactionId",
          "type": "uint256"
        },
        {
          "indexed": false,
          "name": "ethValue",
          "type": "uint256"
        }
      ],
      "name": "ReceiveEth",
      "type": "event"
    },
    {
      "anonymous": false,
      "inputs": [
        {
          "indexed": false,
          "name": "to",
          "type": "address"
        },
        {
          "indexed": false,
          "name": "transactionId",
          "type": "uint256"
        },
        {
          "indexed": false,
          "name": "tokenAmount",
          "type": "uint256"
        },
        {
          "indexed": false,
          "name": "refundEth",
          "type": "uint256"
        },
        {
          "indexed": false,
          "name": "tokenRate",
          "type": "uint256"
        }
      ],
      "name": "TokenTransferred",
      "type": "event"
    },
    {
      "anonymous": false,
      "inputs": [
        {
          "indexed": false,
          "name": "from",
          "type": "address"
        },
        {
          "indexed": false,
          "name": "receivedEth",
          "type": "uint256"
        },
        {
          "indexed": false,
          "name": "tokenRate",
          "type": "uint256"
        },
        {
          "indexed": false,
          "name": "tokenAmount",
          "type": "uint256"
        },
        {
          "indexed": false,
          "name": "createdAt",
          "type": "uint256"
        },
        {
          "indexed": false,
          "name": "transferredAt",
          "type": "uint256"
        }
      ],
      "name": "TransactionLog",
      "type": "event"
    },
    {
      "anonymous": false,
      "inputs": [
        {
          "indexed": true,
          "name": "_from",
          "type": "address"
        },
        {
          "indexed": true,
          "name": "_to",
          "type": "address"
        }
      ],
      "name": "OwnershipTransferred",
      "type": "event"
    },
    {
      "constant": false,
      "inputs": [],
      "name": "withdraw",
      "outputs": [],
      "payable": false,
      "stateMutability": "nonpayable",
      "type": "function"
    },
    {
      "constant": true,
      "inputs": [
        {
          "name": "_transactionId",
          "type": "uint256"
        }
      ],
      "name": "getTransactionDetail",
      "outputs": [
        {
          "name": "",
          "type": "address"
        },
        {
          "name": "",
          "type": "uint256"
        },
        {
          "name": "",
          "type": "uint256"
        },
        {
          "name": "",
          "type": "uint256"
        },
        {
          "name": "",
          "type": "uint256"
        },
        {
          "name": "",
          "type": "uint256"
        }
      ],
      "payable": false,
      "stateMutability": "view",
      "type": "function"
    },
    {
      "constant": true,
      "inputs": [
        {
          "name": "_user",
          "type": "address"
        }
      ],
      "name": "getUserTransactionIndexes",
      "outputs": [
        {
          "name": "",
          "type": "uint256[]"
        }
      ],
      "payable": false,
      "stateMutability": "view",
      "type": "function"
    },
    {
      "constant": false,
      "inputs": [
        {
          "name": "_from",
          "type": "address"
        }
      ],
      "name": "logAllTransactions",
      "outputs": [],
      "payable": false,
      "stateMutability": "nonpayable",
      "type": "function"
    },
    {
      "constant": false,
      "inputs": [
        {
          "name": "_transactionId",
          "type": "uint256"
        },
        {
          "name": "_tokenRate",
          "type": "uint256"
        }
      ],
      "name": "sendToken",
      "outputs": [],
      "payable": false,
      "stateMutability": "nonpayable",
      "type": "function"
    }
  ],
  "bytecode": "0x608060405234801561001057600080fd5b506040516040806110e78339810180604052810190808051906020019092919080519060200190929190505050336000806101000a81548173ffffffffffffffffffffffffffffffffffffffff021916908373ffffffffffffffffffffffffffffffffffffffff16021790555081600160006101000a81548173ffffffffffffffffffffffffffffffffffffffff021916908373ffffffffffffffffffffffffffffffffffffffff16021790555080600260006101000a81548173ffffffffffffffffffffffffffffffffffffffff021916908373ffffffffffffffffffffffffffffffffffffffff1602179055505050610fd7806101106000396000f300608060405260043610610078576000357c0100000000000000000000000000000000000000000000000000000000900463ffffffff1680633ccfd60b14610084578063664dd24f1461009b5780638da5cb5b146101335780638e65f7e41461018a5780639ff512fa146101cd578063cc657e621461025d575b6100823334610294565b005b34801561009057600080fd5b506100996104e1565b005b3480156100a757600080fd5b506100dc600480360381019080803573ffffffffffffffffffffffffffffffffffffffff1690602001909291905050506105bd565b6040518080602001828103825283818151815260200191508051906020019060200280838360005b8381101561011f578082015181840152602081019050610104565b505050509050019250505060405180910390f35b34801561013f57600080fd5b506101486106af565b604051808273ffffffffffffffffffffffffffffffffffffffff1673ffffffffffffffffffffffffffffffffffffffff16815260200191505060405180910390f35b34801561019657600080fd5b506101cb600480360381019080803573ffffffffffffffffffffffffffffffffffffffff1690602001909291905050506106d4565b005b3480156101d957600080fd5b506101f860048036038101908080359060200190929190505050610838565b604051808773ffffffffffffffffffffffffffffffffffffffff1673ffffffffffffffffffffffffffffffffffffffff168152602001868152602001858152602001848152602001838152602001828152602001965050505050505060405180910390f35b34801561026957600080fd5b50610292600480360381019080803590602001909291908035906020019092919050505061092a565b005b8067016345785d8a000081101515156102ac57600080fd5b674563918244f4000081111515156102c357600080fd5b600360c0604051908101604052808573ffffffffffffffffffffffffffffffffffffffff168152602001848152602001600081526020016000815260200142815260200160008152509080600181540180825580915050906001820390600052602060002090600602016000909192909190915060008201518160000160006101000a81548173ffffffffffffffffffffffffffffffffffffffff021916908373ffffffffffffffffffffffffffffffffffffffff1602179055506020820151816001015560408201518160020155606082015181600301556080820151816004015560a08201518160050155505050600460008473ffffffffffffffffffffffffffffffffffffffff1673ffffffffffffffffffffffffffffffffffffffff16815260200190815260200160002060016003805490500390806001815401808255809150509060018203906000526020600020016000909192909190915055507f229f2af8152f8220a3f9a69a0eead26c38fd702eeebe43b70326ef0e274231a3836001600460008773ffffffffffffffffffffffffffffffffffffffff1673ffffffffffffffffffffffffffffffffffffffff168152602001908152602001600020805490500384604051808473ffffffffffffffffffffffffffffffffffffffff1673ffffffffffffffffffffffffffffffffffffffff168152602001838152602001828152602001935050505060405180910390a1505050565b6000809054906101000a900473ffffffffffffffffffffffffffffffffffffffff1673ffffffffffffffffffffffffffffffffffffffff163373ffffffffffffffffffffffffffffffffffffffff1614151561053c57600080fd5b6000809054906101000a900473ffffffffffffffffffffffffffffffffffffffff1673ffffffffffffffffffffffffffffffffffffffff166108fc3073ffffffffffffffffffffffffffffffffffffffff16319081150290604051600060405180830381858888f193505050501580156105ba573d6000803e3d6000fd5b50565b60606000809054906101000a900473ffffffffffffffffffffffffffffffffffffffff1673ffffffffffffffffffffffffffffffffffffffff163373ffffffffffffffffffffffffffffffffffffffff1614151561061a57600080fd5b600460008373ffffffffffffffffffffffffffffffffffffffff1673ffffffffffffffffffffffffffffffffffffffff1681526020019081526020016000208054806020026020016040519081016040528092919081815260200182805480156106a357602002820191906000526020600020905b81548152602001906001019080831161068f575b50505050509050919050565b6000809054906101000a900473ffffffffffffffffffffffffffffffffffffffff1681565b6000806000600460008573ffffffffffffffffffffffffffffffffffffffff1673ffffffffffffffffffffffffffffffffffffffff1681526020019081526020016000209250600091505b8280549050821015610832576003838381548110151561073b57fe5b906000526020600020015481548110151561075257fe5b906000526020600020906006020190507f311f63b5135cd4d1e0e26c4846d3787c973890dae024360cca347fbf9d532d778160000160009054906101000a900473ffffffffffffffffffffffffffffffffffffffff1682600101548360020154846003015485600401548660050154604051808773ffffffffffffffffffffffffffffffffffffffff1673ffffffffffffffffffffffffffffffffffffffff168152602001868152602001858152602001848152602001838152602001828152602001965050505050505060405180910390a1818060010192505061071f565b50505050565b60008060008060008060008060009054906101000a900473ffffffffffffffffffffffffffffffffffffffff1673ffffffffffffffffffffffffffffffffffffffff163373ffffffffffffffffffffffffffffffffffffffff1614151561089e57600080fd5b8780600160038054905003101515156108b657600080fd5b6003898154811015156108c557fe5b906000526020600020906006020191508160000160009054906101000a900473ffffffffffffffffffffffffffffffffffffffff1682600101548360020154846003015485600401548660050154975097509750975097509750505091939550919395565b6000806000806000806000809054906101000a900473ffffffffffffffffffffffffffffffffffffffff1673ffffffffffffffffffffffffffffffffffffffff163373ffffffffffffffffffffffffffffffffffffffff1614151561098e57600080fd5b8780600160038054905003101515156109a657600080fd5b8860006003828154811015156109b857fe5b9060005260206000209060060201600501541415156109d657600080fd5b60038a8154811015156109e557fe5b90600052602060002090600602019750600160009054906101000a900473ffffffffffffffffffffffffffffffffffffffff1696508673ffffffffffffffffffffffffffffffffffffffff1663dd62ed3e600260009054906101000a900473ffffffffffffffffffffffffffffffffffffffff16306040518363ffffffff167c0100000000000000000000000000000000000000000000000000000000028152600401808373ffffffffffffffffffffffffffffffffffffffff1673ffffffffffffffffffffffffffffffffffffffff1681526020018273ffffffffffffffffffffffffffffffffffffffff1673ffffffffffffffffffffffffffffffffffffffff16815260200192505050602060405180830381600087803b158015610b0b57600080fd5b505af1158015610b1f573d6000803e3d6000fd5b505050506040513d6020811015610b3557600080fd5b810190808051906020019092919050505095508673ffffffffffffffffffffffffffffffffffffffff166370a08231600260009054906101000a900473ffffffffffffffffffffffffffffffffffffffff166040518263ffffffff167c0100000000000000000000000000000000000000000000000000000000028152600401808273ffffffffffffffffffffffffffffffffffffffff1673ffffffffffffffffffffffffffffffffffffffff168152602001915050602060405180830381600087803b158015610c0557600080fd5b505af1158015610c19573d6000803e3d6000fd5b505050506040513d6020811015610c2f57600080fd5b81019080805190602001909291905050509450610c50898960010154610f3a565b935083861015610c5e578593505b83851015610c6a578493505b610c928860010154610c8d610c7f878d610f6b565b670de0b6b3a7640000610f3a565b610f8f565b92506000831115610d09578760000160009054906101000a900473ffffffffffffffffffffffffffffffffffffffff1673ffffffffffffffffffffffffffffffffffffffff166108fc849081150290604051600060405180830381858888f19350505050158015610d07573d6000803e3d6000fd5b505b6000841115610e6c578673ffffffffffffffffffffffffffffffffffffffff166323b872dd600260009054906101000a900473ffffffffffffffffffffffffffffffffffffffff168a60000160009054906101000a900473ffffffffffffffffffffffffffffffffffffffff16876040518463ffffffff167c0100000000000000000000000000000000000000000000000000000000028152600401808473ffffffffffffffffffffffffffffffffffffffff1673ffffffffffffffffffffffffffffffffffffffff1681526020018373ffffffffffffffffffffffffffffffffffffffff1673ffffffffffffffffffffffffffffffffffffffff1681526020018281526020019350505050602060405180830381600087803b158015610e2f57600080fd5b505af1158015610e43573d6000803e3d6000fd5b505050506040513d6020811015610e5957600080fd5b8101908080519060200190929190505050505b8888600201819055508388600301819055504288600501819055507ff2da68c47066ef0c54d27743346bc08bdf6e13c9d94e54be4d888ad93df463958860000160009054906101000a900473ffffffffffffffffffffffffffffffffffffffff168b86868d604051808673ffffffffffffffffffffffffffffffffffffffff1673ffffffffffffffffffffffffffffffffffffffff1681526020018581526020018481526020018381526020018281526020019550505050505060405180910390a150505050505050505050565b600081830290506000831480610f5a5750818382811515610f5757fe5b04145b1515610f6557600080fd5b92915050565b60008082111515610f7b57600080fd5b8183811515610f8657fe5b04905092915050565b6000828211151515610fa057600080fd5b8183039050929150505600a165627a7a7230582038450e0d5c5f1762b79cc945015219ecd6e7e300452daf1a2e52f104085161a10029",
  "source": "pragma solidity ^0.4.19;\n\n\n// ----------------------------------------------------------------------------\n// Safe maths start\n// ----------------------------------------------------------------------------\ncontract SafeMath {\n    function safeAdd(uint a, uint b) internal pure returns (uint c) {\n        c = a + b;\n        require(c >= a);\n    }\n    function safeSub(uint a, uint b) internal pure returns (uint c) {\n        require(b <= a);\n        c = a - b;\n    }\n    function safeMul(uint a, uint b) internal pure returns (uint c) {\n        c = a * b;\n        require(a == 0 || c / a == b);\n    }\n    function safeDiv(uint a, uint b) internal pure returns (uint c) {\n        require(b > 0);\n        c = a / b;\n    }\n}\n// ----------------------------------------------------------------------------\n// Safe maths end\n// ----------------------------------------------------------------------------\n\n// ----------------------------------------------------------------------------\n// ERC20 contract start\n// ----------------------------------------------------------------------------\ncontract ERC20Token {\n    function totalSupply() public constant returns (uint);\n    function balanceOf(address tokenOwner) public constant returns (uint balance);\n    function allowance(address tokenOwner, address spender) public constant returns (uint remaining);\n    function transfer(address to, uint tokens) public returns (bool success);\n    function approve(address spender, uint tokens) public returns (bool success);\n    function transferFrom(address from, address to, uint tokens) public returns (bool success);\n\n    event Transfer(address indexed from, address indexed to, uint tokens);\n    event Approval(address indexed tokenOwner, address indexed spender, uint tokens);\n}\n// ----------------------------------------------------------------------------\n// ERC20 contract end\n// ----------------------------------------------------------------------------\n\n\n// ----------------------------------------------------------------------------\n// Owned contract start\n// ----------------------------------------------------------------------------\ncontract Owned {\n    address public owner;\n\n    event OwnershipTransferred(address indexed _from, address indexed _to);\n\n    constructor() public {\n        owner = msg.sender;\n    }\n\n    modifier onlyOwner {\n        require(msg.sender == owner);\n        _;\n    }\n}\n// ----------------------------------------------------------------------------\n// Owned contract end\n// ----------------------------------------------------------------------------\n\n\n// ----------------------------------------------------------------------------\n// FastExchange contract start\n// ----------------------------------------------------------------------------\ncontract FastExchange is Owned, SafeMath {\n\n    struct FTransaction {\n        address from;\n        uint receivedEth;\n        uint tokenRate;\n        uint tokenAmount;\n        uint createdAt;\n        uint transferredAt;\n    }\n    \n    uint private constant minEth = 0.1 ether;\n    uint private constant maxEth = 5 ether;\n    address tokenAddress;\n    address faucetAddress;\n\n    FTransaction[] transactions;\n    mapping (address => uint[]) transactionBook;\n    //mapping (address => Transaction) lastestTransaction;\n\n    //events\n    event ReceiveEth(address from, uint transactionId, uint ethValue);\n    event TokenTransferred(address to, uint transactionId, uint tokenAmount, uint refundEth, uint tokenRate);\n    event TransactionLog(address from, uint receivedEth, uint tokenRate, uint tokenAmount, uint createdAt, uint transferredAt);\n    //events\n\n    //modifiers\n    modifier AccepableEther(uint _etherValue) {\n        require(_etherValue >= minEth);\n        require(_etherValue <= maxEth);\n        _;\n    } \n\n    modifier ValidTransactionId(uint _transactionId) {\n        require(transactions.length - 1 >= _transactionId);\n        _;\n    }\n\n    modifier TransactionIsNotClosed(uint _transactionId) {\n        require(transactions[_transactionId].transferredAt == 0);\n        _;\n    }\n    \n\n    //constructor\n    constructor(address _tokenAddress, address _faucetAddress) public {\n        tokenAddress = _tokenAddress;\n        faucetAddress = _faucetAddress;\n    } \n\n    function () public payable {\n        _processIncomingEther(msg.sender, msg.value);\n    }\n\n    function _processIncomingEther(address _sender, uint _ethValue) private AccepableEther(_ethValue) {\n        transactions.push(FTransaction(_sender, _ethValue, 0, 0, now, 0));\n        transactionBook[_sender].push(transactions.length - 1);\n        emit ReceiveEth(_sender, transactionBook[_sender].length -1, _ethValue);  \n    }\n\n    function withdraw() public onlyOwner{\n        owner.transfer(address(this).balance);\n    }\n\n    function getTransactionDetail(uint _transactionId) public constant onlyOwner  ValidTransactionId(_transactionId) returns (address, uint, uint, uint, uint, uint){\n        FTransaction storage t = transactions[_transactionId];\n        return (t.from, t.receivedEth, t.tokenRate, t.tokenAmount, t.createdAt, t.transferredAt);\n    }\n\n    function getUserTransactionIndexes(address _user) public constant onlyOwner returns(uint[]) {\n        return transactionBook[_user];\n    }\n\n    function logAllTransactions(address _from) public {\n        uint[] storage ids = transactionBook[_from];\n        for (uint i = 0; i < ids.length; i++) {\n            FTransaction storage t = transactions[ids[i]];\n            emit TransactionLog(t.from, t.receivedEth, t.tokenRate, t.tokenAmount, t.createdAt, t.transferredAt);\n        }\n    }\n\n    function sendToken(uint _transactionId, uint _tokenRate) public onlyOwner ValidTransactionId(_transactionId) TransactionIsNotClosed(_transactionId){\n        FTransaction storage t = transactions[_transactionId];\n        ERC20Token tokenContract = ERC20Token(tokenAddress);\n        uint allowedToken = tokenContract.allowance(faucetAddress,this);\n        uint maxToken = tokenContract.balanceOf(faucetAddress);\n        uint tokenToSend = safeMul(_tokenRate, t.receivedEth);\n        if(allowedToken < tokenToSend){\n            tokenToSend = allowedToken;\n        }\n        if(maxToken < tokenToSend){\n            tokenToSend = maxToken;\n        }\n        uint refundEth = safeSub(t.receivedEth, safeMul(safeDiv(tokenToSend, _tokenRate),10**18));\n        if(refundEth > 0){\n            t.from.transfer(refundEth);\n        }\n        if(tokenToSend > 0){\n            tokenContract.transferFrom(faucetAddress, t.from, tokenToSend);\n        }\n        t.tokenRate = _tokenRate;\n        t.tokenAmount = tokenToSend;\n        t.transferredAt = now;\n    \n        emit TokenTransferred(t.from, _transactionId, tokenToSend, refundEth, _tokenRate);\n    }\n    \n    \n}\n// ----------------------------------------------------------------------------\n// FastExchange contract end\n// ----------------------------------------------------------------------------",
  "sourcePath": "/Volumes/DATA/NIENDOCS/WorkSpace/TOMOCHAIN/TomoFastExContract/prototypes2/contracts/FastExchangeContract.sol",
  "compiler": {
    "name": "solc",
    "version": "0.4.24+commit.e67f0147.Emscripten.clang"
  },
  "schemaVersion": "2.0.0",
  "updatedAt": "2018-07-04T11:30:13.540Z"
}