{
  "contractName": "FastExchange",
  "abi": [
    {
      "constant": true,
      "inputs": [],
      "name": "maxEth",
      "outputs": [
        {
          "name": "",
          "type": "uint256"
        }
      ],
      "payable": false,
      "stateMutability": "view",
      "type": "function"
    },
    {
      "constant": true,
      "inputs": [],
      "name": "owner",
      "outputs": [
        {
          "name": "",
          "type": "address"
        }
      ],
      "payable": false,
      "stateMutability": "view",
      "type": "function"
    },
    {
      "constant": true,
      "inputs": [],
      "name": "minEth",
      "outputs": [
        {
          "name": "",
          "type": "uint256"
        }
      ],
      "payable": false,
      "stateMutability": "view",
      "type": "function"
    },
    {
      "inputs": [
        {
          "name": "_tokenAddress",
          "type": "address"
        },
        {
          "name": "_faucetAddress",
          "type": "address"
        }
      ],
      "payable": false,
      "stateMutability": "nonpayable",
      "type": "constructor"
    },
    {
      "payable": true,
      "stateMutability": "payable",
      "type": "fallback"
    },
    {
      "anonymous": false,
      "inputs": [
        {
          "indexed": false,
          "name": "from",
          "type": "address"
        },
        {
          "indexed": false,
          "name": "transactionId",
          "type": "uint256"
        },
        {
          "indexed": false,
          "name": "ethValue",
          "type": "uint256"
        }
      ],
      "name": "ReceiveEth",
      "type": "event"
    },
    {
      "anonymous": false,
      "inputs": [
        {
          "indexed": false,
          "name": "to",
          "type": "address"
        },
        {
          "indexed": false,
          "name": "transactionId",
          "type": "uint256"
        },
        {
          "indexed": false,
          "name": "tokenAmount",
          "type": "uint256"
        },
        {
          "indexed": false,
          "name": "refundEth",
          "type": "uint256"
        },
        {
          "indexed": false,
          "name": "tokenRate",
          "type": "uint256"
        }
      ],
      "name": "TokenTransfered",
      "type": "event"
    },
    {
      "anonymous": false,
      "inputs": [
        {
          "indexed": false,
          "name": "mess",
          "type": "string"
        }
      ],
      "name": "CannotCreateNewTransaction",
      "type": "event"
    },
    {
      "anonymous": false,
      "inputs": [
        {
          "indexed": false,
          "name": "mes",
          "type": "string"
        }
      ],
      "name": "Log",
      "type": "event"
    },
    {
      "anonymous": false,
      "inputs": [
        {
          "indexed": false,
          "name": "time",
          "type": "uint256"
        }
      ],
      "name": "LogTime",
      "type": "event"
    },
    {
      "anonymous": false,
      "inputs": [
        {
          "indexed": false,
          "name": "from",
          "type": "address"
        },
        {
          "indexed": false,
          "name": "receivedEth",
          "type": "uint256"
        },
        {
          "indexed": false,
          "name": "tokenRate",
          "type": "uint256"
        },
        {
          "indexed": false,
          "name": "maxToken",
          "type": "uint256"
        },
        {
          "indexed": false,
          "name": "refundEth",
          "type": "uint256"
        },
        {
          "indexed": false,
          "name": "createdAt",
          "type": "uint256"
        },
        {
          "indexed": false,
          "name": "transferredAt",
          "type": "uint256"
        }
      ],
      "name": "TransactionLog",
      "type": "event"
    },
    {
      "anonymous": false,
      "inputs": [
        {
          "indexed": true,
          "name": "_from",
          "type": "address"
        },
        {
          "indexed": true,
          "name": "_to",
          "type": "address"
        }
      ],
      "name": "OwnershipTransferred",
      "type": "event"
    },
    {
      "constant": false,
      "inputs": [],
      "name": "withdraw",
      "outputs": [],
      "payable": false,
      "stateMutability": "nonpayable",
      "type": "function"
    },
    {
      "constant": false,
      "inputs": [
        {
          "name": "from",
          "type": "address"
        }
      ],
      "name": "logAllTransactions",
      "outputs": [],
      "payable": false,
      "stateMutability": "nonpayable",
      "type": "function"
    },
    {
      "constant": false,
      "inputs": [
        {
          "name": "_sender",
          "type": "address"
        },
        {
          "name": "_transactionId",
          "type": "uint256"
        },
        {
          "name": "_tokenRate",
          "type": "uint256"
        },
        {
          "name": "_maxToken",
          "type": "uint256"
        }
      ],
      "name": "sendToken",
      "outputs": [],
      "payable": false,
      "stateMutability": "nonpayable",
      "type": "function"
    }
  ],
  "bytecode": "0x608060405234801561001057600080fd5b50604051604080610f918339810180604052810190808051906020019092919080519060200190929190505050336000806101000a81548173ffffffffffffffffffffffffffffffffffffffff021916908373ffffffffffffffffffffffffffffffffffffffff16021790555081600160006101000a81548173ffffffffffffffffffffffffffffffffffffffff021916908373ffffffffffffffffffffffffffffffffffffffff16021790555080600260006101000a81548173ffffffffffffffffffffffffffffffffffffffff021916908373ffffffffffffffffffffffffffffffffffffffff1602179055505050610e81806101106000396000f300608060405260043610610078576000357c0100000000000000000000000000000000000000000000000000000000900463ffffffff1680631d50169c146100845780633ccfd60b146100e557806354fc85ac146100fc5780638da5cb5b146101275780638e65f7e41461017e578063f1fb3ace146101c1575b61008233346101ec565b005b34801561009057600080fd5b506100e3600480360381019080803573ffffffffffffffffffffffffffffffffffffffff169060200190929190803590602001909291908035906020019092919080359060200190929190505050610416565b005b3480156100f157600080fd5b506100fa610b74565b005b34801561010857600080fd5b50610111610c50565b6040518082815260200191505060405180910390f35b34801561013357600080fd5b5061013c610c5c565b604051808273ffffffffffffffffffffffffffffffffffffffff1673ffffffffffffffffffffffffffffffffffffffff16815260200191505060405180910390f35b34801561018a57600080fd5b506101bf600480360381019080803573ffffffffffffffffffffffffffffffffffffffff169060200190929190505050610c81565b005b3480156101cd57600080fd5b506101d6610dd8565b6040518082815260200191505060405180910390f35b8067016345785d8a0000811015151561020457600080fd5b674563918244f40000811115151561021b57600080fd5b600360008473ffffffffffffffffffffffffffffffffffffffff1673ffffffffffffffffffffffffffffffffffffffff16815260200190815260200160002060e0604051908101604052808573ffffffffffffffffffffffffffffffffffffffff16815260200184815260200160008152602001600081526020016000815260200142815260200160008152509080600181540180825580915050906001820390600052602060002090600702016000909192909190915060008201518160000160006101000a81548173ffffffffffffffffffffffffffffffffffffffff021916908373ffffffffffffffffffffffffffffffffffffffff1602179055506020820151816001015560408201518160020155606082015181600301556080820151816004015560a0820151816005015560c082015181600601555050507f229f2af8152f8220a3f9a69a0eead26c38fd702eeebe43b70326ef0e274231a3836001600360008773ffffffffffffffffffffffffffffffffffffffff1673ffffffffffffffffffffffffffffffffffffffff168152602001908152602001600020805490500384604051808473ffffffffffffffffffffffffffffffffffffffff1673ffffffffffffffffffffffffffffffffffffffff168152602001838152602001828152602001935050505060405180910390a1505050565b6000806000806000806000809054906101000a900473ffffffffffffffffffffffffffffffffffffffff1673ffffffffffffffffffffffffffffffffffffffff163373ffffffffffffffffffffffffffffffffffffffff1614151561047a57600080fd5b8989806001600360008573ffffffffffffffffffffffffffffffffffffffff1673ffffffffffffffffffffffffffffffffffffffff1681526020019081526020016000208054905003101515156104d057600080fd5b600360008d73ffffffffffffffffffffffffffffffffffffffff1673ffffffffffffffffffffffffffffffffffffffff1681526020019081526020016000208b81548110151561051c57fe5b9060005260206000209060070201975061053a8a8960010154610de4565b9650600160009054906101000a900473ffffffffffffffffffffffffffffffffffffffff1695508573ffffffffffffffffffffffffffffffffffffffff1663dd62ed3e600260009054906101000a900473ffffffffffffffffffffffffffffffffffffffff16306040518363ffffffff167c0100000000000000000000000000000000000000000000000000000000028152600401808373ffffffffffffffffffffffffffffffffffffffff1673ffffffffffffffffffffffffffffffffffffffff1681526020018273ffffffffffffffffffffffffffffffffffffffff1673ffffffffffffffffffffffffffffffffffffffff16815260200192505050602060405180830381600087803b15801561065257600080fd5b505af1158015610666573d6000803e3d6000fd5b505050506040513d602081101561067c57600080fd5b810190808051906020019092919050505094508573ffffffffffffffffffffffffffffffffffffffff166370a08231600260009054906101000a900473ffffffffffffffffffffffffffffffffffffffff166040518263ffffffff167c0100000000000000000000000000000000000000000000000000000000028152600401808273ffffffffffffffffffffffffffffffffffffffff1673ffffffffffffffffffffffffffffffffffffffff168152602001915050602060405180830381600087803b15801561074c57600080fd5b505af1158015610760573d6000803e3d6000fd5b505050506040513d602081101561077657600080fd5b8101908080519060200190929190505050935088851015610795578498505b888410156107a1578398505b6107c988600101546107c46107b68a8e610e15565b670de0b6b3a7640000610de4565b610e39565b9250600083111561081c578b73ffffffffffffffffffffffffffffffffffffffff166108fc849081150290604051600060405180830381858888f1935050505015801561081a573d6000803e3d6000fd5b505b600087111561095b578573ffffffffffffffffffffffffffffffffffffffff166323b872dd600260009054906101000a900473ffffffffffffffffffffffffffffffffffffffff168e8a6040518463ffffffff167c0100000000000000000000000000000000000000000000000000000000028152600401808473ffffffffffffffffffffffffffffffffffffffff1673ffffffffffffffffffffffffffffffffffffffff1681526020018373ffffffffffffffffffffffffffffffffffffffff1673ffffffffffffffffffffffffffffffffffffffff1681526020018281526020019350505050602060405180830381600087803b15801561091e57600080fd5b505af1158015610932573d6000803e3d6000fd5b505050506040513d602081101561094857600080fd5b8101908080519060200190929190505050505b89600360008e73ffffffffffffffffffffffffffffffffffffffff1673ffffffffffffffffffffffffffffffffffffffff1681526020019081526020016000208c8154811015156109a857fe5b90600052602060002090600702016002018190555088600360008e73ffffffffffffffffffffffffffffffffffffffff1673ffffffffffffffffffffffffffffffffffffffff1681526020019081526020016000208c815481101515610a0a57fe5b90600052602060002090600702016003018190555082600360008e73ffffffffffffffffffffffffffffffffffffffff1673ffffffffffffffffffffffffffffffffffffffff1681526020019081526020016000208c815481101515610a6c57fe5b90600052602060002090600702016004018190555042600360008e73ffffffffffffffffffffffffffffffffffffffff1673ffffffffffffffffffffffffffffffffffffffff1681526020019081526020016000208c815481101515610ace57fe5b9060005260206000209060070201600601819055507fd0ee7f0632358050d58fdc53a27dafffcda7d9941458f29897d8ab363875d28c8c8c89868e604051808673ffffffffffffffffffffffffffffffffffffffff1673ffffffffffffffffffffffffffffffffffffffff1681526020018581526020018481526020018381526020018281526020019550505050505060405180910390a1505050505050505050505050565b6000809054906101000a900473ffffffffffffffffffffffffffffffffffffffff1673ffffffffffffffffffffffffffffffffffffffff163373ffffffffffffffffffffffffffffffffffffffff16141515610bcf57600080fd5b6000809054906101000a900473ffffffffffffffffffffffffffffffffffffffff1673ffffffffffffffffffffffffffffffffffffffff166108fc3073ffffffffffffffffffffffffffffffffffffffff16319081150290604051600060405180830381858888f19350505050158015610c4d573d6000803e3d6000fd5b50565b674563918244f4000081565b6000809054906101000a900473ffffffffffffffffffffffffffffffffffffffff1681565b6000806000600360008573ffffffffffffffffffffffffffffffffffffffff1673ffffffffffffffffffffffffffffffffffffffff1681526020019081526020016000209250600091505b8280549050821015610dd2578282815481101515610ce657fe5b906000526020600020906007020190507f56332fa68d3cbbfc7fd690f798e53a8be269758a26b8dab98a4d185f6f550a5d8160000160009054906101000a900473ffffffffffffffffffffffffffffffffffffffff16826001015483600201548460030154856004015486600501548760060154604051808873ffffffffffffffffffffffffffffffffffffffff1673ffffffffffffffffffffffffffffffffffffffff16815260200187815260200186815260200185815260200184815260200183815260200182815260200197505050505050505060405180910390a18180600101925050610ccc565b50505050565b67016345785d8a000081565b600081830290506000831480610e045750818382811515610e0157fe5b04145b1515610e0f57600080fd5b92915050565b60008082111515610e2557600080fd5b8183811515610e3057fe5b04905092915050565b6000828211151515610e4a57600080fd5b8183039050929150505600a165627a7a72305820bd2455204db9df639726edb7f732bf9b3816f2bdb3bb90a05174c6a6623f9c510029",
  "source": "pragma solidity ^0.4.19;\n\n\n// ----------------------------------------------------------------------------\n// Safe maths start\n// ----------------------------------------------------------------------------\ncontract SafeMath {\n    function safeAdd(uint a, uint b) internal pure returns (uint c) {\n        c = a + b;\n        require(c >= a);\n    }\n    function safeSub(uint a, uint b) internal pure returns (uint c) {\n        require(b <= a);\n        c = a - b;\n    }\n    function safeMul(uint a, uint b) internal pure returns (uint c) {\n        c = a * b;\n        require(a == 0 || c / a == b);\n    }\n    function safeDiv(uint a, uint b) internal pure returns (uint c) {\n        require(b > 0);\n        c = a / b;\n    }\n}\n// ----------------------------------------------------------------------------\n// Safe maths end\n// ----------------------------------------------------------------------------\n\n// ----------------------------------------------------------------------------\n// ERC20 contract start\n// ----------------------------------------------------------------------------\ncontract ERC20Token {\n    function totalSupply() public constant returns (uint);\n    function balanceOf(address tokenOwner) public constant returns (uint balance);\n    function allowance(address tokenOwner, address spender) public constant returns (uint remaining);\n    function transfer(address to, uint tokens) public returns (bool success);\n    function approve(address spender, uint tokens) public returns (bool success);\n    function transferFrom(address from, address to, uint tokens) public returns (bool success);\n\n    event Transfer(address indexed from, address indexed to, uint tokens);\n    event Approval(address indexed tokenOwner, address indexed spender, uint tokens);\n}\n// ----------------------------------------------------------------------------\n// ERC20 contract end\n// ----------------------------------------------------------------------------\n\n\n// ----------------------------------------------------------------------------\n// Owned contract start\n// ----------------------------------------------------------------------------\ncontract Owned {\n    address public owner;\n\n    event OwnershipTransferred(address indexed _from, address indexed _to);\n\n    constructor() public {\n        owner = msg.sender;\n    }\n\n    modifier onlyOwner {\n        require(msg.sender == owner);\n        _;\n    }\n\n    \n}\n// ----------------------------------------------------------------------------\n// Owned contract end\n// ----------------------------------------------------------------------------\n\n\n// ----------------------------------------------------------------------------\n// FastExchange contract start\n// ----------------------------------------------------------------------------\ncontract FastExchange is Owned, SafeMath {\n\n    struct FTransaction {\n        address from;\n        uint receivedEth;\n        uint tokenRate;\n        uint maxToken;\n        uint refundEth;\n        uint createdAt;\n        uint transferredAt;\n    }\n    \n    uint public constant minEth = 0.1 ether;\n    uint public constant maxEth = 5 ether;\n    address tokenAddress;\n    address faucetAddress;\n\n    mapping (address => FTransaction[]) transactionBook;\n    //mapping (address => Transaction) lastestTransaction;\n\n    //events\n    event ReceiveEth(address from, uint transactionId, uint ethValue);\n    event TokenTransfered(address to, uint transactionId, uint tokenAmount, uint refundEth, uint tokenRate);\n    event CannotCreateNewTransaction(string mess);\n    event Log(string mes);\n    event LogTime(uint time);\n    event TransactionLog(address from, uint receivedEth, uint tokenRate, uint maxToken, uint refundEth, uint createdAt, uint transferredAt);\n    //events\n\n    //modifiers\n    modifier AccepableEther(uint _etherValue) {\n        require(_etherValue >= minEth);\n        require(_etherValue <= maxEth);\n        _;\n    } \n\n    modifier ValidTransactionId(address _sender, uint _transactionId) {\n        require(transactionBook[_sender].length - 1 >= _transactionId);\n        _;\n    }\n\n    \n    \n\n    //constructor\n    constructor(address _tokenAddress, address _faucetAddress) public {\n        tokenAddress = _tokenAddress;\n        faucetAddress = _faucetAddress;\n    } \n\n    function () public payable {\n        _processIncomingEther(msg.sender, msg.value);\n    }\n\n    function _processIncomingEther(address _sender, uint _ethValue) private AccepableEther(_ethValue) {\n        transactionBook[_sender].push(FTransaction(_sender, _ethValue, 0, 0, 0, now, 0));\n        emit ReceiveEth(_sender, transactionBook[_sender].length -1, _ethValue);  \n    }\n\n    function withdraw() public onlyOwner{\n        owner.transfer(address(this).balance);\n    }\n\n    function logAllTransactions(address from) public {\n        FTransaction[] storage ta = transactionBook[from];\n        for (uint i = 0; i < ta.length; i++) {\n            FTransaction storage t = ta[i];\n            emit TransactionLog(t.from, t.receivedEth, t.tokenRate, t.maxToken, t.refundEth, t.createdAt, t.transferredAt);\n        }\n    }\n\n    function sendToken(address _sender, uint _transactionId, uint _tokenRate, uint _maxToken) public onlyOwner ValidTransactionId(_sender, _transactionId){\n        FTransaction storage t = transactionBook[_sender][_transactionId];\n        uint tokenToSend = safeMul(_tokenRate, t.receivedEth); \n        ERC20Token tokenContract = ERC20Token(tokenAddress);\n        uint allowedToken = tokenContract.allowance(faucetAddress,this);\n        uint tokenBalance = tokenContract.balanceOf(faucetAddress);\n        if(allowedToken < _maxToken){\n            _maxToken = allowedToken;\n        }\n        if(tokenBalance < _maxToken){\n            _maxToken = tokenBalance;\n        }\n        uint refundEth = safeSub(t.receivedEth, safeMul(safeDiv(tokenToSend, _tokenRate),10**18));\n        if(refundEth > 0){\n            _sender.transfer(refundEth);\n        }\n        if(tokenToSend > 0){\n            tokenContract.transferFrom(faucetAddress, _sender, tokenToSend);\n        }\n        transactionBook[_sender][_transactionId].tokenRate = _tokenRate;\n        transactionBook[_sender][_transactionId].maxToken = _maxToken;\n        transactionBook[_sender][_transactionId].refundEth = refundEth;\n        transactionBook[_sender][_transactionId].transferredAt = now;\n        emit TokenTransfered(_sender, _transactionId, tokenToSend, refundEth, _tokenRate);\n    }\n}\n// ----------------------------------------------------------------------------\n// FastExchange contract end\n// ----------------------------------------------------------------------------",
  "sourcePath": "/Volumes/DATA/NIENDOCS/WorkSpace/TOMOCHAIN/TomoFastExContract/prototypes2/contracts/FastExchangeContract.sol",
  "compiler": {
    "name": "solc",
    "version": "0.4.24+commit.e67f0147.Emscripten.clang"
  },
  "schemaVersion": "2.0.0",
  "updatedAt": "2018-07-04T08:06:20.872Z"
}